:020000040800F2
:1000000000300020D51D0008B91C0008BB1C0008EA
:10001000BD1C0008BF1C0008C11C00080000000037
:10002000000000000000000000000000C31C0008E9
:10003000C51C000800000000C71C0008C91C0008FF
:10004000251E0008251E0008251E0008251E000884
:10005000251E0008251E0008251E0008251E000874
:10006000251E0008251E0008251E0008251E000864
:10007000251E0008251E0008251E0008251E000854
:10008000251E0008251E0008251E0008251E000844
:10009000251E0008251E0008251E0008251E000834
:1000A000251E0008251E0008251E0008251E000824
:1000B000251E0008251E000800000000251E00085F
:1000C000251E00080000000000000000251E00089A
:1000D00000000000251E0008251E0008251E00083F
:1000E000251E0008251E000800000000000000007A
:1000F0000000000000000000000000000000000000
:1001000000000000000000000000000000000000EF
:100110000000000000000000251E0008251E000849
:1001200000000000000000000000000000000000CF
:1001300000000000000000000000000000000000BF
:10014000251E0008251E000800000000251E0008CE
:10015000251E0008251E0008251E0008251E000873
:10016000251E0008251E00080000000000000000F9
:10017000000000000000000000000000000000007F
:0801800000000000251E00082C
:1001880010B5054C237833B9044B13B10448AFF3C9
:1001980000800123237010BD0C0000200000000027
:1001A800901E000808B5034B1BB103490348AFF381
:1001B800008008BD0000000010000020901E00080C
:1001C80038B50E4A0E4B054618784FF47A73B3FBD0
:1001D800F0F31068B0FBF3F000F094F8044658B957
:1001E8000F2D09D8024629464FF0FF3000F056F887
:1001F800044B20461D6038BD012038BD0800002092
:100208000000002004000020074A08B5136843F0E6
:1002180010031360032000F02FF80020FFF7D0FF31
:1002280001F02AFD002008BD00200240034A044BCB
:1002380011681B780B441360704700BF280000202A
:1002480000000020014B1868704700BF28000020FC
:1002580038B50446FFF7F6FF631C1CBF054B1B7837
:10026800054618BFE418FFF7EDFF401B8442FAD893
:1002780038BD00BF00000020074AD36823F4E063BC
:100288001B041B0C43F0BF63000243F4003300F46B
:10029800E0600343D360704700ED00E0174B30B5D2
:1002A800DC68C4F30224C4F10703251D042B28BF0E
:1002B8000423062D4FF0010505FA03F303F1FF337C
:1002C8008CBF033C00241940A14005FA04F4013C0A
:1002D8002240002842EA01024FEA0212AFBF00F1B1
:1002E800604000F00F00064BD2B2A5BF00F5614098
:1002F800D2B21A5480F8002330BD00BF00ED00E0F0
:1003080014ED00E00138B0F1807F0AD2064B074AAD
:100318005860F02182F823100020072298601A60A4
:1003280070470120704700BF10E000E000ED00E0DA
:100338002DE9F04F85B00B68DFF86481564A0193C8
:100348004FF00F090023019CDC4002D105B0BDE845
:10035800F08F012404FA03FA019C14EA0A0500F05C
:1003680093804C6824F0100BBBF1020F11D1DF0809
:1003780000EB870703F0070E3E6A4FEA8E0E09FA74
:100388000EFC26EA0C0C0E6906FA0EF646EA0C0676
:100398003E624FEA430C0327066807FA0CF7FF434F
:1003A80004F0030E3E400EFA0CFE0BF1FF3B4EEA42
:1003B8000606BBF1010F066011D8866806EA070B2E
:1003C800CE6806FA0CFE4EEA0B068660466826EAF8
:1003D8000A0AC4F300169E4046EA0A064660C66842
:1003E80037408E6806FA0CF63743E600C7604BD5EF
:1003F800D8F8186046F00106C8F81860D8F81860F0
:1004080023F0030707F1804706F0010607F5803758
:10041800039603F0030E039EBE684FEA8E0E09FA98
:100428000EFCB0F1904F26EA0C0C2FD01B4EB042B8
:100438002ED006F58066B0422CD006F58066B04214
:1004480014BF0526032606FA0EF646EA0C06BE6019
:100458001668EF4314F4803F0CBF3E402E431660ED
:10046800566814F4003F0CBF3E402E435660966811
:1004780014F4801F0CBF3E402E439660D668A40239
:1004880054BF3E402E43D66001335CE70026DAE7CE
:100498000126D8E70226D6E70004014000040048F8
:1004A800001002400AB18161704781627047436958
:1004B80059404161704700002DE9F347054618B9D6
:1004C800012002B0BDE8F0870368DA0711D42B6871
:1004D8009B0700F185802B681C0700F1F6802B68CC
:1004E800580700F13F81EA69002A40F0D6810020D0
:1004F800E7E7BA4C636803F00C03042B07D0636882
:1005080003F00C03082B16D16368DF0313D54FF4EF
:10051800003393FAA3F2216893FAA3F3B3FA83F3AF
:1005280003F01F03012202FA03F30B42CFD06B68DA
:10053800002BCCD1C4E76A68B2F5803F25D1236887
:1005480043F480332360E36AA96823F00F030B4365
:10055800E36252B3FFF776FE4FF400368046012778
:1005680096FAA6F3226896FAA6F3B3FA83F303F091
:100578001F0307FA03F31342A9D1FFF763FEA0EBA9
:1005880008006428ECD903209BE7236832B923F4D8
:1005980080332360236823F48023D3E7B2F5A02FA8
:1005A800F5D143F480232360C9E7FFF74BFE4FF4EE
:1005B80000368046012796FAA6F3226896FAA6F333
:1005C800B3FA83F303F01F0307FA03F313423FF46C
:1005D8007EAFFFF737FEA0EB08006428EBD9D2E71F
:1005E8007E4C636813F00C0F07D0636803F00C03AC
:1005F800082B22D16368DE031FD4022393FAA3F2E7
:10060800216893FAA3F3B3FA83F303F01F030122DB
:1006180002FA03F30B4203D02B6993427FF450AFE5
:100628002168F82393FAA3F3B3FA83F26B69934032
:1006380021F0F802134323604DE72A6901260AB323
:1006480096FAA6F3B3FA83F303F1845303F58413FC
:100658009B0002271E60FFF7F5FD804697FAA7F377
:10066800226897FAA7F3B3FA83F303F01F0306FA95
:1006780003F31342D4D1FFF7E5FDA0EB08000228ED
:10068800ECD980E796FAA6F3B3FA83F303F184531F
:1006980003F584139B0002271A60FFF7D3FD8046F9
:1006A80097FAA7F3226897FAA7F3B3FA83F303F04C
:1006B8001F0306FA03F313423FF40DAFFFF7C2FD21
:1006C800A0EB08000228EBD95DE7AA69434E44492C
:1006D80001241AB394FAA4F3B3FA83F30B449B00EE
:1006E80002271C60FFF7AEFD804697FAA7F397FA3A
:1006F800A7F397FAA7F3726A97FAA7F3B3FA83F303
:1007080003F01F0304FA03F313427FF4E8AEFFF784
:1007180099FDA0EB08000228E7D934E794FAA4F37E
:10072800B3FA83F30B449B0002271A60FFF78AFD94
:10073800804697FAA7F397FAA7F397FAA7F3726A8E
:1007480097FAA7F3B3FA83F303F01F0304FA03F34A
:1007580013423FF4C4AEFFF775FDA0EB0800022872
:10076800E7D910E71D4CE369D90034D4E36943F0B5
:100778008053E361E36903F080530193019B0126F1
:10078800184F3B68DA052FD5EB68012B3DD1236A5A
:1007980043F001032362FFF755FD02278246B9465D
:1007A8004FF0010897FAA7F397FAA7F3002B6CD03C
:1007B800226A99FAA9F3B3FA83F303F01F0308FA3C
:1007C80003F3134258D0002E3FF48DAEE36923F0B3
:1007D8008053E36187E60026D2E700BF001002409D
:1007E80020819010007000403B6843F480733B60A8
:1007F800FFF728FD80463B68DB05C5D4FFF722FDDF
:10080800A0EB08006428F6D9BDE63BBB236A23F0B9
:1008180001032362236A23F004032362FFF712FD16
:1008280002278246B9464FF0010897FAA7F397FACC
:10083800A7F373B3226A99FAA9F3B3FA83F303F01F
:100848001F0308FA03F31342BDD0FFF7FBFC41F284
:100858008833A0EB0A009842E7D994E6052B236A6F
:1008680003D143F00403236291E723F001032362D9
:10087800236A23F004038DE7FFF7E4FC41F2883391
:10088800A0EB0A0098428DD97DE697FAA7F3626A31
:100898008FE797FAA7F3626ACDE7414C636803F0E4
:1008A8000C03082B3FF40CAE022A4FF0807352D190
:1008B80093FAA3F3B3FA83F303F1845303F5841390
:1008C8009B0000221A60FFF7BDFC4FF000778046BE
:1008D800012697FAA7F3226897FAA7F3B3FA83F3E6
:1008E80003F01F0306FA03F313422DD162686B6A03
:1008F800296A22F474120B43134363604FF0807328
:1009080093FAA3F3B3FA83F303F1845303F584133F
:100918009B004FF000751E60FFF794FC0126074608
:1009280095FAA5F3226895FAA5F3B3FA83F303F0D1
:100938001F0306FA03F313427FF4D9ADFFF782FCD5
:10094800C01B0228ECD91EE6FFF77CFCA0EB0800D0
:100958000228BED917E693FAA3F3B3FA83F303F197
:10096800845303F584139B0000221A60FFF76AFC86
:100978004FF000750746012695FAA5F3226895FA07
:10098800A5F3B3FA83F303F01F0306FA03F3134244
:100998003FF4ADADFFF756FCC01B0228ECD9F2E5D9
:1009A8000010024010B5134C616801F00C03082BCD
:1009B8001ED14FF4701393FAA3F301F47012B3FA33
:1009C80083F322FA03F30C4AD05CE36A0F2292FA0B
:1009D800A2F2B2FA82F203F00F03D340074AD25CC4
:1009E800CB034ABF064B074BB3FBF2F3584310BD8A
:1009F800034810BD00100240C91E0008D91E000897
:100A080000127A0000093D002DE9F0410D46044628
:100A180010B90120BDE8F0814C4A136803F00703C0
:100A28008B422ED32268910736D4D2073CD4474A4A
:100A3800136803F007039D4275D32268444D12F0F2
:100A4800040F7CD1130706D56B68226923F4605321
:100A580043EAC2036B60FFF7A5FF6B68F02292FAC6
:100A6800A2F2B2FA82F203F0F003D340394AD35C1F
:100A7800D840394B18600020FFF7A2FB0020BDE8E2
:100A8800F081136823F007030B431360136803F026
:100A980007039942BDD1C5E72D49A0684B6823F0EB
:100AA800F00303434B60C0E76268294E012A27D14F
:100AB8004FF4003393FAA3F1316893FAA3F3B3FA2E
:100AC80083F303F01F0302FA03F30B42A1D0736808
:100AD80023F003031A437260FFF7B4FB41F288382E
:100AE80007467368626803F00C03B3EB820F9ED06D
:100AF800FFF7A8FBC01B4045F3D90320BDE8F081F0
:100B0800022A0CBF4FF00073022393FAA3F1306856
:100B180093FAA3F3B3FA83F303F01F03012101FA55
:100B280003F30342D2E7136823F007032B43136050
:100B3800136803F007039D427FF46BAF7DE76B6892
:100B4800E16823F4E0630B436B607BE7002002401D
:100B580000100240F41E000808000020084B4FF463
:100B6800E0625B6892FAA2F2B2FA82F203F4E063FE
:100B7800D340044AD35C044A1068D840704700BF89
:100B880000100240041F000808000020084B4FF422
:100B980060525B6892FAA2F2B2FA82F203F46053EE
:100BA800D340044AD35C044A1068D840704700BF59
:100BB80000100240041F00080800002003685A685B
:100BC80022F0E0025A604268B2F5827F0AD1826858
:100BD800B2F5004F02D0B2F5806F03D11A6822F047
:100BE80040021A60826AB2F5005F07D11A6822F4DF
:100BF80000521A601A6842F400521A60012380F801
:100C08005D30002380F85C300320704770B50546DE
:100C18000C4616462B68986810F080000DD0621CB0
:100C2800F9D024B92846BDE87040FFF7C7BFFFF7E1
:100C380009FB801B8442EDD8F4E770BDF7B5064682
:100C48000C4615461F463168886820400ED0B4F51A
:100C5800C06F01BF0A7BD2B28DF807209DF807301C
:100C68006B1CF1D025B93046FFF7A8FF03B0F0BDE3
:100C7800FFF7E8FAC01B8542E5D8F4E770B51346DC
:100C88000D4616460A464FF4C0510446FFF7D6FFF4
:100C980028B1236E43F02003236603200FE0324679
:100CA80029462046FFF7B2FF0028F2D133462A46EC
:100CB8004FF4C0612046FFF7C1FF0028E9D170BD9D
:100CC800F8B54368B3F5827F04460E4617460BD144
:100CD8008368B3F5004F02D0B3F5806F04D1236861
:100CE8001A6822F040021A603A4631462046FFF759
:100CF8008DFF054628B1236E43F0200323660325A4
:100D080013E06368B3F5827F0FD1A368B3F5004F92
:100D180002D0B3F5806F08D13B4632464FF4C0612C
:100D28002046FFF78BFF0028E5D12846F8BD70B5AF
:100D3800044600284AD00023836290F85D3003F00F
:100D4800FF021BB980F85C2000F064FF02232168D1
:100D580084F85D300B68E26823F04003B2F5E06F79
:100D68000B604FF000032ED91846B2F5706F18BF0C
:100D7800A362236B2BB9B2F5E06F8CBF022301236A
:100D88002363A6686368A5693343266933436669A4
:100D98003343E6693343266A3343A66A334305F48B
:100DA800007633430B60636A1A43636B2D0C1A4356
:100DB80005F004052A430243012300204A60206607
:100DC80084F85D3070BD4FF48050D0E7012070BDCD
:100DD8002DE9F3411E4690F85C30012B04460D4680
:100DE800904600F0B180012380F85C30FFF72AFAC2
:100DF800074694F85D00C0B2012840F0A380002D9A
:100E080057D0B8F1000F54D0032384F85D30002385
:100E180023662364A4F83E80A4F84430A4F846303E
:100E28002365E364A3682068A563B3F5004F08BF92
:100E38000368A4F83C8004BF43F48043036003685C
:100E48005B065EBF036843F040030360E368B3F5E5
:100E5800E06F63683ED91BB1E38F9BB2012B06D1CB
:100E680035F8023BC360E38F013B9BB2E387E38F16
:100E78009BB2A3B93A4631462046FFF7FFFE002849
:100E88005DD1A36833B901932368DA6801929B683E
:100E98000193019B206E003018BF012009E02368F0
:100EA8009A68900703D535F8022BDA60DBE74EB96C
:100EB8000320012384F85D30002384F85C3002B0FD
:100EC800BDE8F081711CD2D0FFF7BCF9C01B864287
:100ED800CDD8EDE71BB1E38F9BB2012B0AD1E38F8D
:100EE8009BB2012B16D935F8023BC360E38F023B56
:100EF8009BB2E387E38F9BB2002BBBD023689A6831
:100F0800920712D5E28F92B2012A0BD935F8022B3B
:100F1800DA60EBE72B780373E38F013B9BB2E3873F
:100F28000135E7E72A781A73F6E7002EC0D0731C5C
:100F3800E0D0FFF787F9C01B8642DBD8B8E720234B
:100F480023669EE70220B4E70220B8E72DE9F843BC
:100F58001F4690F85C30DDF82080012B04460D46D2
:100F6800164600F01C81012380F85C30FFF76AF90F
:100F780094F85D306168DBB2012B81460AD0B1F587
:100F8800827F40F00881A268002A40F00481042B87
:100F980040F00181002D00F00081002E00F0FD805E
:100FA800002F00F0FA8094F85D30E0682664042B86
:100FB8001CBF052384F85D300023B0F5E06F23667D
:100FC800E364A4F846702365A4F84470A563E78732
:100FD800A787236804D8B4F8462092B2012A2ED9EC
:100FE8005A6822F480525A601A6857065EBF1A6817
:100FF80042F040021A60B0F5E06F58D919B1E28F9B
:1010080092B2012A06D135F8022BDA60E38F013B50
:101018009BB2E3870127E38F9BB2A3B9B4F84630AC
:101028009BB283B94A4641462046FFF727FE00286F
:1010380040F0AE80206E003018BF01202FE05A68C3
:1010480042F48052CFE777B1E38F9BB25BB123685C
:101058009A68920707D535F8022BDA60E38F013BCF
:101068009BB2E3870027B4F846309BB26BB1236884
:101078009A68D00709D5DB6826F8023BB4F84630F1
:10108800013B9BB2A4F846300127B8F1FF3FC2D01C
:10109800FFF7D8F8A0EB09008045BCD8032001234E
:1010A80084F85D30002384F85C30BDE8F88319B11A
:1010B800E28F92B2012A0AD1E28F92B2012A4DD967
:1010C80035F8022BDA60E38F023B9BB2E3870127F6
:1010D800E38F9BB223B9B4F846309BB2002BA1D062
:1010E80097B1E38F9BB27BB123689A6891070BD5C0
:1010F800E28F92B2012A39D935F8022BDA60E38FF0
:10110800023B9BB2E3870027B4F846309BB2DBB1C1
:1011180023689A68D20717D5B4F8462092B2012AF4
:101128002CD9DA6826F8022BB4F84620023A92B293
:10113800A4F84620B4F8462092B2012A03D85A6887
:1011480042F480525A600127B8F1FF3FC0D0FFF740
:1011580079F8A0EB09008045BAD89FE72A781A7376
:10116800E38F013B9BB2E3870135B0E72A781A7316
:10117800E38F013B9BB2E3870135C4E71B7B3370E8
:10118800B4F84630013B9BB2A4F846300136DAE7A2
:10119800202323664EE7022081E701207FE7022013
:1011A800BDE8F8832DE9F3411D464368B3F5827F16
:1011B80004460E4690460CD1836853B9042380F840
:1011C8005D30134600950A46FFF7C0FE02B0BDE841
:1011D800F08194F85C30012B00F08B80012384F8B7
:1011E8005C30FFF72FF8074694F85D00C0B201287D
:1011F8007DD1002E5FD0B8F1000F5CD0042384F8B5
:101208005D302168E268266400232366A4F84680DE
:10121800E387A363A387E36423654B68A4F844804A
:10122800B2F5E06F8CBF23F4805343F480534B60D6
:10123800A368B3F5004F02BF0B6823F480430B602B
:101248000B685B065EBF0B6843F040030B60B2F5AA
:10125800E06F1ED9B4F846309BB2FBB123689A6898
:10126800D20737D5DB6826F8023BB4F84630013B95
:101278009BB2A4F84630EDE723689A68D00718D5E2
:101288001B7B06F8013BB4F84630013B9BB2A4F83F
:101298004630B4F846309BB2002BEDD13A46294689
:1012A8002046FFF70DFDF8B9206E003018BF012069
:1012B80001E03DB90320012384F85D30002384F860
:1012C8005C3083E7691CE4D0FEF7BCFFC01B854295
:1012D800DFD8EFE7002DEDD06B1CBBD0FEF7B2FFD7
:1012E800C01B8542B6D8E5E720232366DCE7022049
:1012F800E1E702206AE7000038B50446056821697D
:10130800A368C26928680B4361690B4349491343C1
:1013180001400B432B606B68E168206A23F440535B
:101328000B436B60A968A36921F4306103430B4345
:10133800AB60414B9D4212D103F558433F491B6BAB
:1013480003F00303B2F5004FCB5C3BD1082B36D832
:10135800DFE803F00F2124352D3535353000384BC3
:101368009D4203D003F580639D425ED1B2F5004FE4
:1013780031D1FFF7F3FB61684A0802EB4003B3FB86
:10138800F1F39BB2002023F00F022168C3F342035C
:101398001343CB6038BDFFF7F9FBECE760684308FF
:1013A80003F5740303F51053B3FBF0F3E9E7FFF714
:1013B800F9FAE0E76068430803F58033F4E70120B1
:1013C8000023E0E7082B33D8DFE803F005101B32D1
:1013D800273232322A00FFF7C1FB636800EB530063
:1013E800B0FBF3F080B2E860002038BDFFF7CEFB19
:1013F800636800EB5300B0FBF3F00F4B80B2D8608A
:10140800F2E76268530803F5F40303F59053B3FB5E
:10141800F2F3094A9BB2D360E6E7FFF7C3FAE7E7BE
:101428006268530803F50043F1E7B2F5004FC6D0F0
:10143800012038BDF369FFEF00380140E91E0008BC
:1014480000440040436ADA0710B506D50168846A8B
:101458004A6822F4003222434A609C0706D5016894
:10146800C46A4A6822F4803222434A60590706D582
:101478000168046B4A6822F4802222434A601A07F2
:1014880006D50168446B4A6822F4004222434A6048
:10149800DC0606D50168846B8A6822F480522243F0
:1014A8008A60990606D50168C46B8A6822F40052DE
:1014B80022438A605A060FD50168046C4A6822F4F0
:1014C80080122243B4F5801F4A6005D14A68446CF3
:1014D80022F4C00222434A601B0606D50268816CCA
:1014E800536823F400230B43536010BD2DE9F041EA
:1014F800069D04460F46164698462168CA6937EA8B
:1015080002030CBF01220022B24202D00020BDE833
:10151800F0816B1CF2D09DB923681A6822F4D0724E
:101528001A609A6822F001029A60202384F86930D0
:1015380084F86A30002384F868300320BDE8F0811D
:10154800FEF780FEA0EB08008542D6D2E4E72DE93D
:10155800F3411F4690F86930202B04460D4690460B
:101568004CD1002948D0002A46D090F86830012B89
:1015780044D0012380F868300023C366212380F813
:101588006930FEF75FFEA4F850800646A4F8528042
:10159800B4F8522092B262B90097334640212046EF
:1015A800FFF7A4FF98B9202384F8693084F868000D
:1015B8000EE0B4F852300097013B9BB2A4F85230C9
:1015C8000022334680212046FFF790FF18B1032000
:1015D80002B0BDE8F081A3682268B3F5805F07D147
:1015E80023692BB935F8023BC3F308031385CFE70A
:1015F8002B7813850135CBE70120E9E70220E7E7DF
:1016080073B504460026C666FEF71CFE23681B68F1
:101618001A07054617D423681B685B070AD56FF0BD
:101628007E43009300222B464FF480012046FFF7AB
:101638005DFFA0B92023002084F8693084F8680091
:1016480084F86A300CE06FF07E430093324603461C
:101658004FF400112046FFF749FF0028DBD0032094
:1016680002B070BD10B5044660B390F8693003F05D
:10167800FF021BB980F8682000F076FB226824235B
:1016880084F86930136823F0010313602046FFF7DC
:1016980033FE012816D0636A13B12046FFF7D2FE45
:1016A80023685A6822F490425A609A6822F02A0203
:1016B8009A601A6842F0010220461A60BDE810409C
:1016C800FFF79EBF012010BD08B501224FF400713D
:1016D8004FF09040FEF7E6FE012280210248BDE867
:1016E8000840FEF7DFBE00BF0008004870B504469A
:1016F8000D46164694F85D3053B1C8233246294644
:101708002046FFF765FB38B1BDE8704000F058BAD5
:101718000120FEF79DFDEDE770BD00002DE9F341C6
:1017280004460F461646984694F85D30012B22D1A0
:101738000325330A0022402113488DF804508DF800
:1017480005308DF80660FEF7ADFE2A4601A9204651
:10175800FFF7CCFFC823424639462046FFF722FD53
:1017680002280CD0012240210748FEF79BFE0120E9
:1017780002B0BDE8F0810120FEF76AFDD4E7012040
:10178800FEF766FDE6E700BF0004004837B50B4CDE
:101798000546002220464021FEF784FE02A90623C2
:1017A80001F8043D28460122FFF7A0FF012240214D
:1017B8002046FEF777FE03B030BD00BF00040048A6
:1017C80037B50B4C0546002220464021FEF76AFE3D
:1017D80002A9042301F8043D28460122FFF786FFE9
:1017E800012240212046FEF75DFE03B030BD00BF58
:1017F8000004004837B502AC052304F8043D002274
:101808000546402112488DF80020FEF74BFE0122C4
:1018180021462846FFF76AFFC82301226946284661
:10182800FFF7C0FC02284FF001000ED0FEF710FDB4
:101838009DF8000010F00104EED101224021044877
:10184800FEF730FE204603B030BDFEF701FDE3E7AA
:10185800000400482DE9F34104460F461546984612
:1018680094F85D30012B37D12046FFF78FFF022314
:101878008DF8043000222B0A402119488DF80530D4
:101888008DF80650FEF70EFE032201A92046FFF749
:101898002DFF05256423424639462046FFF798FA6E
:1018A8000228064606D10520013DFEF7D1FC15F0B9
:1018B800FF05EFD1012240210948FEF7F3FD20463C
:1018C800FFF798FF2046FFF77BFF012E0CBF022091
:1018D800012002B0BDE8F0810120FEF7B9FCBFE7A6
:1018E800000400482DE9F04712F01F05814688469C
:1018F80014461E464FEA531703F01F0A1BD147B17F
:1019080002EB4717BDB2AC4207D1534622464146C7
:101918004846BDE8F047FFF79DBF202322464146D1
:101928004846FFF797FF012807463ED12034A4B266
:1019380008F12008E7E7C5F12005ADB27FB95545A4
:10194800E7D22B46FFF786FF012807462DD1AAEBE1
:10195800050362199BB292B208EB0501D8E72B4642
:10196800FFF778FF012807461FD1761B2C44B6B233
:10197800A4B24FEA561A04EB4A1A45441FFA8AFAE7
:10198800544505D116F01F030FD022462946BFE75C
:101998002023224629464846FFF75CFF012803D149
:1019A8002034A4B22035EBE707463846BDE8F08777
:1019B800F0B514228BB00DEB0200002100F054FAB0
:1019C800354B364E5A69364F42F400225A615A69ED
:1019D80002F400220192019A5A6942F480025A6183
:1019E8005A6902F480020292029A5A6942F4003259
:1019F8005A615A6902F400320392039A5A6942F40E
:101A080080225A615B6903F48023049330460022E4
:101A18008421049BFEF746FD00224FF400714FF02D
:101A28009040FEF73FFD002238464021FEF73AFD80
:101A38004FF400530024059305A91A4B069330462A
:101A480001250794FEF774FC802305A93046059309
:101A5800069507940894FEF76BFC042305A9304605
:101A68000593069507940894FEF762FC4FF40073FB
:101A780005A94FF090400593069507940894FEF742
:101A880057FC402305A93846059306950794089402
:101A9800FEF74EFC0BB0F0BD0010024000080048F5
:101AA800000400480000211010B590B02822002141
:101AB80006A800F0D9F91422002101A800F0D4F9F1
:101AC80001230A93102302240B9306A84FF46013F2
:101AD8000F9306940D94FEF7EFFC0F2301934FF438
:101AE80080620023214601A802940393049205937F
:101AF800FEF78AFF10B010BD70B52B4B94B004AA46
:101B080003F12006154618685968144603C40833BB
:101B1800B3422246F7D1254B254C18681B798DF81E
:101B28000C300290FEF770FBFFF7BEFFFFF740FF97
:101B380000F0FCF800F046F8FFF7C6FD0F2304227A
:101B480002A91B48FFF703FD1A4901A800F094F900
:101B58000F23012201A91648FFF7F9FC20230122CF
:101B680029461548FFF7BEFE40F6B830FEF770FB71
:101B78000CA9202301221048FFF7D0FD0F232022B3
:101B88000CA92046FFF7E3FC0A4901A800F074F904
:101B980001A90F2301222046FFF7D9FC0421074899
:101BA800FEF785FCE0E700BFA81E0008EF1E00084E
:101BB80090000020ED1E00082C00002000080048BE
:101BC80070470000114812494FF4E06208B54FF41D
:101BD8008273C2604FF4007280E80A0082610023B9
:101BE8002022836003614361C261036243628362AE
:101BF800072203630823C2624363FFF798F818B10A
:101C0800BDE80840FFF7DCBF08BD00BF2C0000207E
:101C18000030014010B5044688B01422002103A802
:101C280000F022F92268134B9A4220D103F5604351
:101C380003A99A6942F480529A619A6902F480521F
:101C48000192019A5A6942F400325A615B6903F4BD
:101C580000330293029BE02303930223049303239C
:101C680006934FF0904005230793FEF761FB08B0F9
:101C780010BD00BF003001400C4B07B59A6942F017
:101C880001029A619A6902F001020092009ADA69E7
:101C980042F08052DA61DB6903F080530193072038
:101CA800019BFEF7E9FA03B05DF804FB001002405F
:101CB8007047FEE7FEE7FEE7FEE7704770477047AC
:101CC800FEF7B4BA1549D1F8883043F47003C1F867
:101CD8008830134B1A6842F001021A605868114A9A
:101CE80002405A601A6822F0847222F480321A6024
:101CF8001A6822F480221A605A6822F4FE025A6096
:101D0800DA6A22F00F02DA62186B074A02401A6395
:101D180000229A604FF000638B60704700ED00E08E
:101D2800001002400CC07FF8CCFC00FF08B50C483E
:101D38000C4B4FF4164E80E808400C2200238360B9
:101D4800C360036142618361C36103624362FFF759
:101D580089FC18B1BDE80840FFF732BF08BD00BFD5
:101D6800900000200044004010B5044688B01422BA
:101D7800002103A800F078F82268134B9A4220D17A
:101D880003F5E63303A9DA6942F40032DA61DA6965
:101D980002F400320192019A5A6942F400325A61FF
:101DA8005B6903F400330293029B0C230393022321
:101DB8000493032306934FF0904007230793FEF7FD
:101DC800B7FA08B010BD00BF00440040DFF834D0B7
:101DD800002103E00C4B5B58435004310B480C4B7B
:101DE80042189A42F6D30B4A02E0002342F8043B19
:101DF800094B9A42F9D3FFF765FF00F011F8FFF796
:101E08007BFEFEE700300020141F000800000020C1
:101E18000C0000200C00002000010020FEE700005C
:101E280070B50D4E0D4CA41BA4100025A54209D178
:101E38000B4E0C4C00F028F8A41BA4100025A5425A
:101E480005D170BD56F8253098470135EEE756F8AC
:101E5800253098470135F2E70C1F00080C1F0008D1
:101E68000C1F0008101F000802440346934200D1CB
:101E7800704703F8011BF9E7034611F8012B03F833
:101E8800012B002AF9D17047F8B500BFF8BC08BC8F
:101E98009E467047F8B500BFF8BC08BC9E46704720
:101EA80054455354205448495320434F4F4C2045E0
:101EB8004550494F492053544D20535049202B2B0E
:101EC8000002030405060708090A0B0C0D0E0F1083
:101ED800100102030405060708090A0B0C0D0E0F72
:101EE80010000408020A00686F6C6100000000001E
:101EF80000000000010203040607080900000000B2
:041F080001020304CB
:041F0C00AD0100081B
:041F1000890100083B
:0C1F1400010000001000000000127A0024
:0400000508001DD5FD
:00000001FF
